:100000000C9434050C945C050C945C050C945C0514
:100010000C945C050C945C050C945C050C945C05DC
:100020000C945C050C945C050C940D080C947F08F2
:100030000C945C050C945C050C945C050C945C05BC
:100040000C945C050C945C050C945C050C945C05AC
:100050000C945C050C945C050C945C050C945B1092
:100060000C945C050C945C050C945C050C945C058C
:100070000C945C050C945C050C945C050C945C057C
:100080000C94FE0B0C945C050C945C050C945C05C4
:100090000C945C050C945C050C945C050C945C055C
:1000A0000C945C050C945C050C945C050800000045
:1000B000BE922449123EABAAAA2ABECDCCCC4C3E5D
:1000C00000000080BEABAAAAAA3E00000000BF004C
:1000D0000000803F0000000000084178D3BB438748
:1000E000D1133D190E3CC3BD4282AD2B3E68EC825C
:1000F00076BED98FE1A93E4C80EFFFBE01C4FF7FE1
:100100003F0000000000F0F89C8E8783878E9CF8EB
:10011000F00000FEFF0303030303070EFCF80000DA
:10012000FEFF0303030303070EFCF80000FFFF00BC
:10013000000000000000FFFF0000FEFF83838383B8
:1001400083C7EE7C380000F8FC0E07030303070E9C
:10015000FCF800003F7FE0C08080C0E07F3FFFFFF1
:1001600001010101010101FFFF0000FFFF0C0C0C68
:100170000C1C3E77E3C100007FFFC0C0C0C0C0E0E0
:10018000703F1F00001F3F70E0C0C0C0E0703F1F05
:1001900000007FFFC1C1C1C1C1E3773E1C00001F49
:1001A0003F70E0C0C0C0E0703F1F000000000001D1
:1001B000FFFF01000000D5F08D14A1C881CFD9F157
:1001C000AF2000546F6E65734D69786572006D7372
:1001D000004475726174696F6E3A00446F776E3ACD
:1001E0002064656C657465204C61737400487A20E6
:1001F00000202055703A20616464204E6F746500C1
:100200004E6F74653A007D3B002C20002C2000616D
:1002100072726179203D207B0000001000110012F5
:1002200000130015001600170019001A001C001D0D
:10023000001F00210023002500270029002C002E8C
:10024000003100340037003A003E004100450049CB
:10025000004E00520057005D00620068006E00759D
:10026000007B0083008B0093009C00A500AF00B9C9
:1002700000C400D000DC00E900F7000601150126EB
:100280000137014A015D01720188019F01B801D265
:1002900001EE010B022A024B026E029302BA02E443
:1002A0000210033F037003A403DC031704550497F3
:1002B00004DD0427057505C80520067D06E006490E
:1002C00007B8072D08AA082D09B9094D0AEA0A90AE
:1002D0000B400CFA0CC00D910E6F0F5A1053115BAE
:1002E0001272139A14D41520178018F519801B2345
:1002F0001DDE1EB420A622B524E4263429A72B40F7
:100300002E0031EA330037453ABC3D524553544341
:1003100030202043533020443020204453302045A7
:1003200030202046302020465330204730202047C0
:100330005330204130202041533020423020204390
:100340003120204353312044312020445331204573
:10035000312020463120204653312047312020478C
:10036000533120413120204153312042312020435C
:10037000322020435332204432202044533220453F
:100380003220204632202046533220473220204758
:100390005332204132202041533220423220204328
:1003A000332020435333204433202044533320450B
:1003B0003320204633202046533320473320204724
:1003C00053332041332020415333204233202043F4
:1003D00034202043533420443420204453342045D7
:1003E00034202046342020465334204734202047F0
:1003F00053342041342020415334204234202043C0
:1004000035202043533520443520204453352045A2
:1004100035202046352020465335204735202047BB
:10042000533520413520204153352042352020438B
:10043000362020435336204436202044533620456E
:100440003620204636202046533620473620204787
:100450005336204136202041533620423620204357
:10046000372020435337204437202044533720453A
:100470003720204637202046533720473720204753
:100480005337204137202041533720423720204323
:100490003820204353382044382020445338204506
:1004A000382020463820204653382047382020471F
:1004B00053382041382020415338204238202043EF
:1004C00039202043533920443920204453392045D2
:1004D00039202046392020465339204739202047EB
:1004E00053392041392020415339204239202000FE
:1004F00000000000003E5B4F5B3E3E6B4F6B3E1CBE
:100500003E7C3E1C183C7E3C181C577D571C1C5ED4
:100510007F5E1C00183C1800FFE7C3E7FF001824AB
:100520001800FFE7DBE7FF30483A060E2629792955
:1005300026407F050507407F05253F5A3CE73C5A8A
:100540007F3E1C1C08081C1C3E7F14227F22145F67
:100550005F005F5F06097F017F006689956A6060C2
:1005600060606094A2FFA29408047E040810207EBC
:10057000201008082A1C08081C2A08081E10101041
:10058000100C1E0C1E0C30383E3830060E3E0E0687
:10059000000000000000005F0000000700070014DA
:1005A0007F147F14242A7F2A122313086462364999
:1005B0005620500008070300001C22410000412281
:1005C0001C002A1C7F1C2A08083E08080080703086
:1005D00000080808080800006060002010080402F5
:1005E0003E5149453E00427F4000724949494621FB
:1005F00041494D331814127F1027454545393C4A6F
:100600004949314121110907364949493646494985
:10061000291E0000140000004034000000081422CD
:10062000411414141414004122140802015909063B
:100630003E415D594E7C1211127C7F494949363E3C
:10064000414141227F4141413E7F494949417F0922
:100650000909013E414151737F0808087F00417F2D
:1006600041002040413F017F081422417F4040402B
:10067000407F021C027F7F0408107F3E4141413EC3
:100680007F090909063E4151215E7F091929462645
:100690004949493203017F01033F4040403F1F2049
:1006A00040201F3F4038403F631408146303047820
:1006B00004036159494D43007F4141410204081040
:1006C00020004141417F040201020440404040407B
:1006D000000307080020545478407F2844443838E9
:1006E00044444428384444287F385454541800085B
:1006F0007E090218A4A49C787F0804047800447D35
:1007000040002040403D007F1028440000417F40D1
:10071000007C047804787C08040478384444443825
:10072000FC1824241818242418FC7C080404084805
:100730005454542404043F44243C4040207C1C2056
:1007400040201C3C4030403C44281028444C9090B1
:10075000907C4464544C440008364100000077000B
:1007600000004136080002010204023C2623263C18
:100770001EA1A161123A4040207A385454555921A3
:10078000555579412154547841215554784020548D
:100790005579400C1E5272123955555559395454D9
:1007A000545939555454580000457C410002457D48
:1007B000420001457C40F0292429F0F0282528F04A
:1007C0007C545545002054547C547C0A097F49329E
:1007D000494949323248484832324A4848303A4119
:1007E00041217A3A42402078009DA0A07D394444BE
:1007F00044393D4040403D3C24FF2424487E494349
:10080000662B2FFC2F2BFF0929F620C0887E0903B9
:1008100020545479410000447D413048484A3238E0
:100820004040227A007A0A0A727D0D19317D26290C
:10083000292F28262929292630484D402038080804
:10084000080808080808382F10C8ACBA2F10283438
:10085000FA00007B000008142A142222142A14082B
:100860009500220095AA005500AAAA55AA55AA00EB
:100870000000FF00101010FF00141414FF001010EF
:10088000FF00FF1010F010F0141414FC001414F703
:1008900000FF0000FF00FF1414F404FC14141710F0
:1008A0001F10101F101F1414141F00101010F00040
:1008B0000000001F101010101F10101010F010007A
:1008C0000000FF101010101010101010FF1000008A
:1008D00000FF140000FF00FF00001F10170000FCC5
:1008E00004F414141710171414F404F40000FF0097
:1008F000F714141414141414F700F7141414171420
:1009000010101F101F141414F4141010F010F00025
:10091000001F101F0000001F14000000FC14000046
:10092000F010F01010FF10FF141414FF141010102A
:100930001F00000000F010FFFFFFFFFFF0F0F0F0DD
:10094000F0FFFFFF0000000000FFFF0F0F0F0F0F71
:1009500038444438447C2A2A3E147E0202060602A9
:100960007E027E0263554941633844443C04407E24
:10097000201E2006027E020299A5E7A5991C2A499D
:100980002A1C4C7201724C304A4D4D303048784828
:1009900030BC625A463D3E494949007E0101017E14
:1009A0002A2A2A2A2A44445F444440514A44404067
:1009B000444A51400000FF0103E080FF00000808A6
:1009C0006B6B083612362436060F090F0600001826
:1009D000180000001010003040FF0101001F01014D
:1009E0001E00191D1712003C3C3C3C00000000009A
:1009F000080B0002020201000904000001020200CB
:100A0000000524001001052401010104240206054B
:100A100024060001070581031000400904010002BB
:100A20000A0000000705020240000007058302409B
:100A300000000403090412010002EF0201404123F7
:100A4000368000010102030141726475696E6F20F6
:100A50004C4C430041726475696E6F204C656F6E3B
:100A60006172646F0000051911241FBECFEFDAE038
:100A7000DEBFCDBF13E0A0E0B1E0E8E8FDE302C0D7
:100A800005900D92AA32B107D9F727E0AAE2B3E0A8
:100A900001C01D92AF3EB207E1F715E0C4E3D5E017
:100AA00004C02197FE010E94B71CC333D107C9F7C8
:100AB0000E94A5100C94C21E0C9400004091590392
:100AC00050915A032091570330915803421753070E
:100AD000B4F49091E8009570E1F39091E80092FDF4
:100AE00019C08093F1008091590390915A030196A7
:100AF0008F739927892B19F48EEF8093E8008091EA
:100B0000590390915A03019690935A038093590385
:100B100081E0089580E00895DF92EF92FF920F93B5
:100B20001F93CF93DF93D82E8A017B01E40EF51E2D
:100B3000EB01CE15DF0571F0D7FE03C0FE018491F5
:100B400001C088810E945E0521968111F2CF8FEF4E
:100B50009FEF01C0C801DF91CF911F910F91FF90CE
:100B6000EF90DF900895615030F02091F100FC018A
:100B700020830196F8CF289884E680935D0308953A
:100B8000CF92DF92EF92FF920F931F93CF93DF9359
:100B90006C017A018B01C0E0D0E0CE15DF0581F059
:100BA000D8016D918D01D601ED91FC910190F081FC
:100BB000E02DC6010995892B11F02196EECF7E011B
:100BC000C701DF91CF911F910F91FF90EF90DF90C0
:100BD000CF900895CF93DF931F92CDB7DEB769838F
:100BE000DC01ED91FC910280F381E02D41E050E0C9
:100BF000BE016F5F7F4F09950F90DF91CF910895F0
:100C000083E08093E9008091F200882319F08AE361
:100C10008093E8000895FC018485958597FD0BC0BD
:100C20009FB7F89482E08093E9008091F2009FBF23
:100C300090E0019608959FB7F89482E08093E900D0
:100C40008091F2009FBF90E0089580915003E09161
:100C50004E03F0914F03882349F0CF010296909301
:100C60004F0380934E03859194910895CF0102968E
:100C700090934F0380934E038081918108958091DA
:100C80002C0308950895089580E090E008959091D0
:100C9000430324E0929FF0011124E050FF4F808332
:100CA0007283618381E0838380912D03891708F427
:100CB000892F80932D039F5F9093430308950E9493
:100CC000A41E0F931F93CF93DF931F92CDB7DEB770
:100CD00082E0898342E450E060EF79E080E80E949E
:100CE0008C050E940110DC0112960D911C91139746
:100CF0000115110589F0D801ED91FC910280F38175
:100D0000E02DBE016F5F7F4FC801099597FD04C0BC
:100D1000F80100851185ECCF89810F90DF91CF918B
:100D20001F910F9108958F929F92AF92BF92CF9291
:100D3000DF92EF92FF920F931F93CF93DF936C019B
:100D40007B018A0180919B02882309F45CC0809119
:100D50005E03882309F457C080912A0380FF05C0F1
:100D60008091E00082608093E000E801B12C8AEF7E
:100D7000A82E93E0892E2AE3922E209711F4BB200F
:100D8000D9F10E94F00F81110AC0AA94AA20D9F1CA
:100D900061E070E080E090E00E941510EECF282F17
:100DA00030E0C217D3070CF48C2F9FB7F8948092D1
:100DB000E9002091E80025FF1DC0282F30E0C21B6C
:100DC000D30BF701815020F041914093F100FACF0D
:100DD000E20EF31EBB2019F09092E8000AC0809149
:100DE000E80085FD07C09092E800BB24B3942097EB
:100DF00009F0B12C9FBFC1CF5D9884E680935C035E
:100E00001016110644F081E090E0F601938382838E
:100E100080E090E001C0C801DF91CF911F910F9158
:100E2000FF90EF90DF90CF90BF90AF909F908F900A
:100E300008950E94F00F90E008950F931F93CF93B1
:100E4000DF931F92CDB7DEB78C01FC0184859585B9
:100E500097FF0EC0CE0101960E94C20F019719F4B0
:100E6000898190E002C08FEF9FEFF801958784871A
:100E7000F801848595850F90DF91CF911F910F9197
:100E80000895CF93DF931F92CDB7DEB7FC01848521
:100E9000958597FD05C02FEF3FEF358724870BC061
:100EA000CE0101960E94C20F019719F4898190E04A
:100EB00002C08FEF9FEF0F90DF91CF910895AF9217
:100EC000BF92CF92DF92EF92FF920F931F93CF9337
:100ED000DF93DC01CD90DC901197C114D10409F4AB
:100EE00043C01496CD91DC9115972097E9F18C01C0
:100EF00076015701BFEFAB1ABB0AF7018081082EBC
:100F0000000C990B0E944619892B11F07501F1CF45
:100F10002197CC0DDD1D8881082E000C990B0E94B5
:100F20004619892B29F0CE15DF0510F02197F3CF54
:100F3000AE014F5F5F4F4E195F09D80115965C9364
:100F40004E931497CE14DF0420F4B701C6010E941B
:100F5000A91ED801ED91FC91119714968D919C9149
:100F60001597E80FF91F1082DF91CF911F910F9114
:100F7000FF90EF90DF90CF90BF90AF900895EF92E9
:100F8000FF920F931F93CF93DF93EC011982188286
:100F90001B821A821D821C8261157105B9F17B01C9
:100FA000FB0101900020E9F731978F01061B170B19
:100FB000B8016F5F7F4F80E090E00E94DE1D0097D8
:100FC00059F0998388831B830A832C813D81232BCD
:100FD00081F4FC0110820DC088819981009711F085
:100FE0000E94551D198218821D821C821B821A8242
:100FF0000DC01D830C83B70188819981DF91CF914A
:101000001F910F91FF90EF900C94BB1EDF91CF9139
:101010001F910F91FF90EF9008951F920F920FB6BE
:101020000F9211248F939F938091E1009091E100A2
:10103000937F9093E10083FF0FC01092E90091E04D
:101040009093EB001092EC0092E39093ED001092DD
:101050005E0398E09093F00082FF20C093E09093AD
:10106000E9009091F200992319F09AE39093E80037
:1010700090915C03992339F090915C039150909387
:101080005C03992389F190915D03992339F0909144
:101090005D03915090935D03992341F184FF10C04B
:1010A0008091E2008E7E81608093E2008091E10079
:1010B0008F7E8093E10080912A038E7E806111C033
:1010C00080FF16C08091E2008E7E80618093E200F6
:1010D0008091E1008E7E8093E10080912A038E7ED4
:1010E000816080932A0304C05D9ACDCF289AD6CF21
:1010F0009F918F910F900FBE0F901F9018951F9288
:101100000F920FB60F921124CF92DF92EF92FF92BF
:101110000F931F932F933F934F935F936F937F93FF
:101120008F939F93AF93BF93EF93FF93CF93DF93EF
:10113000CDB7DEB76C97DEBFCDBF1092E9008091CE
:10114000E80083FFFBC168E0CE0145960E94B3052D
:1011500082EF8093E8008D8987FF05C09091E800B9
:1011600090FFFCCF03C09EEF9093E800982F9076FD
:1011700009F0C6C09E894F89588D2F89F88C91112E
:101180000CC0803829F480912B038093F10002C0B9
:101190001092F1001092F10045C1913051F481118B
:1011A00041C14130510509F03DC180912B038D7F34
:1011B0000BC0933061F4811135C14130510509F004
:1011C00031C180912B03826080932B032BC195301A
:1011D00049F48091E80080FFFCCF822F80688093E3
:1011E000E30020C1963009F05EC00B8D1C8D22E01B
:1011F0001092E90010925A0310925903F21232C071
:1012000010925803109257030E94610699E0BE01A4
:101210006F5F7F4FDB01E92F1D92EA95E9F7998314
:10122000FA8291E09E8390EA98879AEF99872091BD
:10123000590330915A03275F3F4F3C832B838D83A3
:101240001092E90010925A03109259031093580318
:101250000093570349E050E080E00E948C050E9413
:101260006106E0C010935803009357030E940110D9
:10127000DC0112960D911C9113970115110509F4CB
:10128000BBC0D801ED91FC910480F581E02DBE0139
:101290006B5E7F4FC8010995009709F0C7C0F80140
:1012A00000851185EACF973009F445C1983021F4C3
:1012B00081E08093F100B6C0993009F0B3C083702B
:1012C00009F039C1E3EAF2E081E031E096E3208100
:1012D000211109C08EE78093EA001092EA008F89FD
:1012E00080935E039FC08093E9003093EB002191CF
:1012F0002093EC009093ED008F5F873041F7EACFA9
:101300008B8D9C8D1092E90010925A031092590314
:101310009093580380935703898D811153C08E8910
:101320009D89913A49F4813209F005C147E050E0C6
:1013300064E972E080E0BBC0913209F0FCC0833206
:1013400069F48F89988DA0E0B0E08093900290932B
:101350009102A0939202B093930264C0803269F428
:101360008091E80082FFFCCF67E084E992E00E9470
:10137000B3058BEF8093E80055C0823209F052C06C
:101380008F8980939B02EEEFFFE7859194918B3FCD
:101390009C4D19F0E0E0F8E002C0EEEFFAE0809139
:1013A000940290919502A0919602B0919702803B91
:1013B0009440A105B10509F09EC080919B0280FF79
:1013C00079C099C00E940110FC01028113810115AE
:1013D000110509F4B0C0D801ED91FC910190F081A4
:1013E000E02DBE016B5E7F4FC801099581111AC0C7
:1013F000F80100851185EBCFF1E0FF1609F44EC02E
:10140000F3E0FF1298C08F89882309F44AC0823024
:1014100089F440E860E184E59AE00E948B18882313
:1014200009F489C08EEF8093E80088C01816190669
:10143000CCF381C0813029F440E86BE088E49AE085
:10144000ECCF833009F077C00E940110DC011296C6
:10145000ED90FC9013978E010F5F1F4F6801E11410
:10146000F10479F0D701ED91FC910680F781E02D30
:10147000B801C7010995080F111DF701E084F18437
:10148000EECFD8011C92F60101900020E9F73197C8
:10149000BF016C197D0940E0C601BFCF66E37AE069
:1014A00002C062E37AE0FB01449150E080E80E94D0
:1014B0008C05B8CFEE3F2AE0F20751F08081918190
:1014C0008737A7E79A0721F09093FF0A8093FE0AD7
:1014D00087E797E7918380838091600080935B0327
:1014E0009BE088E10FB6F894A895809360000FBE4A
:1014F0009093600097CF808191818737974709F05B
:1015000091CFA89580916000886180936000809160
:101510005B0380936000EE3FBAE0FB0739F08091F7
:10152000FE0A9091FF0A918380837CCF1092FF0A7C
:101530001092FE0A77CF81E28093EB006C960FB693
:10154000F894DEBF0FBECDBFDF91CF91FF91EF9139
:10155000BF91AF919F918F917F916F915F914F91CB
:101560003F912F911F910F91FF90EF90DF90CF90BF
:101570000F900FBE0F901F901895DC01ED91FC911C
:101580000190F081E02D0994EF92FF920F931F9349
:10159000CF93DF938C017B01C0E0D0E0F701EC0F2B
:1015A000FD1F6491662361F0D801ED91FC910190DB
:1015B000F081E02DC8010995892B11F02196EECF1D
:1015C000CE01DF91CF911F910F91FF90EF90089581
:1015D0006115710579F0FB0101900020E9F7319761
:1015E000AF01461B570BDC01ED91FC910280F381AA
:1015F000E02D099480E090E008958F929F92AF9241
:10160000BF92EF92FF920F931F93CF93DF93CDB7CB
:10161000DEB7A1970FB6F894DEBF0FBECDBF7C0139
:10162000FA01CB0119A2223008F42AE08E010F5DE5
:101630001F4F822E912CA12CB12CBF01A50194012A
:101640000E94E21AF901CA01015011096A3014F42A
:10165000605D01C0695CD8016C93232B242B252B82
:1016600061F7B801C7010E94E80AA1960FB6F89485
:10167000DEBF0FBECDBFDF91CF911F910F91FF90C5
:10168000EF90BF90AF909F908F900895E1E7F0E0CA
:1016900080818D7F808310929100469847981092A8
:1016A0004D030895CF92DF92EF92FF920F931F9315
:1016B000CF93DF930E942506811520E8920751F40D
:1016C000DF91CF911F910F91FF90EF90DF90CF901E
:1016D0000C94460B21E020934D03813020E89207C3
:1016E00051F480914B0390914C0390934F0380935E
:1016F0004E030E94250697FD05C020914A03222330
:1017000009F440C02091490321113CC021E02093FD
:101710005103EC01DF77209769F481E08093520355
:1017200046983FE9C32E3FE0D32EE12CF12CCAEFBF
:10173000D0E014C08E0120E030E060E472E48FE07D
:1017400090E0A90198010E948C1A69017A0181E058
:10175000C81AD108E108F10810925203E091BD07C0
:10176000F091BE070995811103C081E08093520377
:1017700080915103882309F43FC080915203811165
:101780003BC003C010925103C4CF469935C0479A5D
:101790000E942506009771F09C01DE010E94041B47
:1017A000DC01CB0129E0B595A795979587952A95FA
:1017B000D1F703C08FEF9FEFDC01109290002AE079
:1017C00020939100D0929900C09298008093530387
:1017D00090935403A0935503B093560380917100E6
:1017E000826080937100DF91CF911F910F91FF90E4
:1017F000EF90DF90CF9008954798CACF1F920F9235
:101800000FB60F9211242F933F934F935F936F93D3
:101810007F938F939F93AF93BF93EF93FF938091A9
:10182000530390915403A0915503B0915603892B13
:101830008A2B8B2B81F18091520381110BC098B1BF
:1018400080E4892788B980915103882319F088B1F1
:10185000805888B98091530390915403A091550307
:10186000B0915603181619061A061B06B4F4809197
:10187000530390915403A0915503B09156030197DF
:10188000A109B1098093530390935403A093550386
:10189000B093560302C00E94520BFF91EF91BF918B
:1018A000AF919F918F917F916F915F914F913F91F8
:1018B0002F910F900FBE0F901F9018959C01E1E79C
:1018C000F0E090819D7F908310925003EFEAF7E063
:1018D000F0934F03E0934E03F0934C03E0934B03DC
:1018E000318320837383628380E090E895838483CF
:1018F0000C94520B2D9A0895BC0180E090E00C945A
:1019000015108FB18095807F669B88601C9B8460DA
:1019100008950C94761A3E9A3F9A81E080932C03A6
:10192000089580389105B8F460347105A0F490E111
:1019300021E061FD24E060FD220F62FD2295687FB9
:10194000969FD0011124A80FA15ABC4F8C91822BD5
:1019500040FF82278C9308952F923F924F925F927F
:101960006F927F928F929F92AF92BF92CF92DF92AF
:10197000EF92FF920F931F93CF93DF93CDB7DEB714
:1019800027970FB6F894DEBF0FBECDBF9F838E831F
:101990006A30A1F4DC0155962C91559751968D91A2
:1019A0009C915297B8E02B9F800D911D1124EE81E0
:1019B000FF81928B818B108A1786ADC06D3009F440
:1019C000AAC0AE81BF811F960D911C91509700381F
:1019D0001105BCF0EE81FF812589422F50E08785FB
:1019E0009089F6E02F9F800D911D1124AE81BF815B
:1019F00050969C938E931F9756962C91211175C0EB
:101A00008AC0EE81FF8181889288F0E48F1691046C
:101A10000CF7AE81BF8155963C90C801B5E03B9E66
:101A2000800D911D112418161906A4F6432C512C73
:101A3000C401E8E03E9E800D911D11241816190680
:101A40004CF6AE81BF815496BC91BC83EE81FF8180
:101A5000F389FD8325E0629FB0011124CB01805101
:101A60009B4F3C011982F3012490F981F53009F470
:101A7000212C640128E02B8320FE03C03D813A83A2
:101A800002C08C818A839A81911104C0AC81BD818E
:101A9000AB17B9F078018E2D801B831590F4560199
:101AA0008A2D8C19831548F44A81B501C7010E941B
:101AB000910CEFEFAE1ABE0AF3CFFFEFEF1AFF0A59
:101AC000EACF26942B8121502B83C40CD51C2111E5
:101AD000D3CF39813F5F3983040D151DC3010196B2
:101AE0003C01363009F0BFCF75CF6AEF6403900137
:101AF000659F300D112420583F4F281739075CF49B
:101B0000AE81BF81ED91FC9111970190F081E02DA4
:101B10006AE0CD01099581E090E027960FB6F89430
:101B2000DEBF0FBECDBFDF91CF911F910F91FF9010
:101B3000EF90DF90CF90BF90AF909F908F907F906D
:101B40006F905F904F903F902F900895FC0190818F
:101B5000662341F0191614F081E007C09F3759F051
:101B60009F5F08C097FD03C08FEF80830895923870
:101B700014F091509083089540912E0324E0429FE9
:101B8000A0011124FA01E050FF4F21813281B901F7
:101B9000680F711D87FD7A95CB01623371053CF0AA
:101BA000813D77E097072CF080ED97E002C082E35B
:101BB00090E0FA01E050FF4F92838183089524E082
:101BC000829FC0011124A4E4B3E020E030E0FC01D6
:101BD000E20FF31FE55FFC4FE491ED932F5F3F4F62
:101BE00024303105A1F71092480384E493E008956E
:101BF000E82FF0E0EE0FFF1FE75EFD4F8591949117
:101C00000895CF93DF93E0912E0394E0E99FF001D4
:101C10001124DF01A050BF4F9C91292F30E0A90172
:101C2000480F511D87FD5A9557FF02C0892F819596
:101C3000280F311D87FD3A952937310514F098E7B3
:101C400080E0890FE050FF4F8083C181D2810E94E4
:101C5000F80DBE01DF91CF910C945E0CAF92BF9254
:101C6000CF92DF92EF92FF920F931F93CF93DF9368
:101C7000CDB7DEB72C970FB6F894DEBF0FBECDBF41
:101C80008C017B01B12CAB2C8B2D0E94DF0DBC0194
:101C9000CE0107960E94BF07B801CE0101960E94AF
:101CA000BF07CE0107960E945F07CE0101960E94F2
:101CB0005F072B853C858D819E81C980DA8028173E
:101CC000390741F58F819885009719F0C114D10427
:101CD000E1F4C114D10489F0232B41F4C6010E9420
:101CE000551D8F8198850E94551D31C0F601808158
:101CF00090E09195819591090BC0009779F3232B82
:101D000069F3FC01808190E003C0B6010E94B21E1D
:101D1000892B21F3C6010E94551D8F8198850E9451
:101D2000551DB394F9E7BF12AECF61E173E08FE5C3
:101D300097E00E94E80AB8018FE597E00E94E80A60
:101D40006FEC72E08FE597E00E94E80AA12C8A2DE3
:101D50000E94F80D8C018091410390914203081775
:101D6000190731F462E370E080E090E00E944706DA
:101D7000B7018A2D90E00E9447061093420300931A
:101D800041032C960FB6F894DEBF0FBECDBFDF9196
:101D9000CF911F910F91FF90EF90DF90CF90BF9068
:101DA000AF9008953FB7F8948091DB079091DC07DE
:101DB000A091DD07B091DE0726B5A89B05C02F3F97
:101DC00019F00196A11DB11D3FBFBA2FA92F982F61
:101DD0008827820F911DA11DB11DBC01CD0142E0DC
:101DE000660F771F881F991F4A95D1F70895CF92E4
:101DF000DF92EF92FF920F931F93CF93DF936B01CC
:101E0000770FEE08FF08F7FE1BC0EC016DE20E94A1
:101E1000BD0A8C0144275527BA014C195D096E098A
:101E20007F092AE0CE010E94FD0A800F911FDF91F9
:101E3000CF911F910F91FF90EF90DF90CF90089579
:101E40002AE0B701A601DF91CF911F910F91FF907A
:101E5000EF90DF90CF900C94FD0A2F923F924F921B
:101E60005F926F927F928F929F92AF92BF92CF922A
:101E7000DF92EF92FF920F931F93CF93DF93EC01CA
:101E80008B017A016901C61AD70AD7FE03C0D19423
:101E9000C194D10847018C1A9D0A97FE03C0919402
:101EA000819491088C149D0454F49E2D8F2D7901FA
:101EB000292F382F9C2F8D2FE801092F182FEC1672
:101EC000FD0654F4902F812F8901292F382F9C2F44
:101ED0008D2FE701E92EF82E17012C1A3D0A290152
:101EE000401A510A57FE03C05194419451083101E0
:101EF00037FE03C08FEF681A780A7594679402174B
:101F0000130714F08FEF01C081E0A82E880FBB08E3
:101F1000EC16FD06ACF041E08C149D041CF4BE01EF
:101F2000C80102C0B801CE010E94910C6418750866
:101F300077FE04C00A0D1B1D620C731C2196E8CFAE
:101F4000DF91CF911F910F91FF90EF90DF90CF9095
:101F5000BF90AF909F908F907F906F905F904F90C9
:101F60003F902F900895EFE5F3E0A0E0B8E0008007
:101F70000EBC8111012C1197A0FDFDCF0192B9F784
:101F80000DB4089520915E03211103C08FEF9FEFE0
:101F900008955FB7F89422E02093E9002091F200C1
:101FA00030E01216130614F421E030E0422FFC0159
:101FB00084E6415038F0289880935D039091F100B9
:101FC0009193F7CF2115310521F08091F2008823FC
:101FD00019F05FBFC90108958BE68093E800F9CF3F
:101FE0002FB7F89483E08093E9009091E800892F5F
:101FF000807295FF04C09091F20080E4891B2FBF8E
:1020000008958091E30781110DC082E08093DF077E
:1020100084E08093E0071092E2071092E10781E0EC
:102020008093E3078FED97E008958F929F92AF9290
:10203000BF92CF92DF92EF92FF926B017C010E94E0
:10204000D20E4B015C01C114D104E104F104F1F0A2
:102050000E94D20EDC01CB0188199909AA09BB099B
:10206000883E9340A105B10570F321E0C21AD10862
:10207000E108F10888EE880E83E0981EA11CB11CCF
:10208000C114D104E104F10419F7DDCFFF90EF9002
:10209000DF90CF90BF90AF909F908F9008952FB713
:1020A000F8946091D7077091D8078091D9079091E3
:1020B000DA072FBF08951F920F920FB60F921124C7
:1020C0002F933F938F939F93AF93BF938091D707A5
:1020D0009091D807A091D907B091DA073091D6072F
:1020E00023E0230F2D3720F40196A11DB11D05C05B
:1020F00026E8230F0296A11DB11D2093D6078093D9
:10210000D7079093D807A093D907B093DA078091A7
:10211000DB079091DC07A091DD07B091DE07019607
:10212000A11DB11D8093DB079093DC07A093DD0711
:10213000B093DE07BF91AF919F918F913F912F9107
:102140000F900FBE0F901F901895CF93DF93CDB7D0
:10215000DEB766970FB6F894DEBF0FBECDBF78949A
:1021600084B5826084BD84B5816084BD85B582609C
:1021700085BD85B5816085BD80916E00816080934D
:102180006E001092810080918100826080938100B6
:1021900080918100816080938100809180008160C6
:1021A0008093800080919100826080939100809163
:1021B0009100816080939100809190008160809374
:1021C00090008091C10084608093C1008091C10023
:1021D00082608093C1008091C10081608093C100C2
:1021E0008091C30081608093C3008091C0008260B1
:1021F0008093C0008091C20081608093C200809172
:102200007A00846080937A0080917A008260809363
:102210007A0080917A00816080937A0080917A00C0
:10222000806880937A0010925E0310922B031092C4
:102230002A038091D70081608093D70080EA809341
:10224000D80089B5806189BD89B5826089BD09B42E
:1022500000FEFDCF61E070E080E090E00E9415108C
:102260008091D8008F7C80618093D8008091E000BD
:10227000807F8093E0008091E1008E7E8093E1007A
:102280008DE08093E200559A209A8FEF9FEF909314
:102290006C0780936B0763EC71E08FE597E00E9419
:1022A000C40A6FEC72E08FE597E00E94E80A6AEFDB
:1022B00070E082ED92E00E942E0E6AEF70E085EDF4
:1022C00092E00E942E0E6AEF70E088ED92E00E948C
:1022D0002E0E6AEF70E08BED92E00E942E0E64EFFE
:1022E00071E08EED92E00E942E0E64EF71E08EEDB3
:1022F00092E00E942E0E6AEF70E081EE92E00E9462
:102300002E0E6AEF70E081EE92E00E942E0E6AEFD0
:1023100070E081EE92E00E942E0E6AEF70E081EE96
:1023200092E00E942E0E68EE73E08EED92E00E9425
:102330002E0E6AEF70E081EE92E00E942E0E6AEFA0
:1023400070E081EE92E00E942E0E6AEF70E081EE66
:1023500092E00E942E0E6AEF70E081EE92E00E9401
:102360002E0E68EE73E08EED92E00E942E0E6AEF64
:1023700070E08BED92E00E942E0E6AEF70E08BED24
:1023800092E00E942E0E6AEF70E08BED92E00E94C8
:102390002E0E6AEF70E08BED92E00E942E0E64EF3D
:1023A00071E088ED92E00E942E0E64EF71E088EDFE
:1023B00092E00E942E0E6AEF70E08EED92E00E9495
:1023C0002E0E6AEF70E08EED92E00E942E0E6AEF04
:1023D00070E08EED92E00E942E0E6AEF70E08EEDBE
:1023E00092E00E942E0E68EE73E082ED92E00E9471
:1023F0002E0E81EC80937C0085B1806F85B984B10D
:10240000877E84B984B1876E84B95E9A5F988AB1F9
:10241000806D8AB9769A6E9881B3806F81BB8998F6
:1024200080B38D7080BB80E58CBD81E08DBD85E083
:1024300090E00E947C0C5F9A85E090E00E947C0C0A
:102440005E985C98E6EBF1E083EC91E024912EBD80
:1024500000000DB407FEFDCF31968E179F07B1F730
:102460005C9A81E88093640080916500816080932C
:10247000650080E00E94B30F0E94810C87FF24C09A
:102480005C9885EA8EBD00000DB407FEFDCF5C9A16
:102490002E982F982D98809164008062809364001C
:1024A00081E083BF889513BEFCCF2D980E94810CDC
:1024B0008478843871F00E94810C8471843131F108
:1024C00088EC90E00E947C0C0E94810C82FDEDCF94
:1024D0003AC00E947A0C88EC90E00E947C0C2F9805
:1024E00082E090E00E94761A8F3F29F06FEF82E041
:1024F00090E00E947E1A84EF91E00E947C0C2F9A5B
:102500000E94810C84788438D9F3D5CF0E947A0C4C
:1025100088EC90E00E947C0C2E9882E090E00E9473
:10252000761A882329F060E082E090E00E947E1A0B
:1025300084EF91E00E947C0C2E9A0E94810C8471A1
:102540008431D9F3BDCF0E947A0C82E090E00E94E2
:10255000890C882319F00E948B0C04C010922C0364
:102560003E983F9881E090E00E94890C282F2470CB
:10257000922E81FF85C021112E9800EF1FEFE8E019
:10258000EE2EF12C0E94810C86FF05C02E9A2F9A08
:102590000E947A0C75C0992029F00430110511F4BD
:1025A0002E9A2F9881E00E94B30F980117FF04C064
:1025B00022273327201B310B27703327C80117FD33
:1025C000079673E0959587957A95E1F717FF05C013
:1025D0000197A701421B530B9A01AC015695542F4A
:1025E000442757954795415A5C4FA0E0B0E037012A
:1025F000621A730A8F3F6FEF96074CF40196A85A40
:10260000BF4F40585F4FA03BB105A1F71EC06A0104
:10261000E4E9CE0ED11C5A0160E070E08F3FFFEF7D
:102620009F0709F4F3C4FB01EA0FFB1FEA5FFE4FAB
:10263000E491F0E02F01022E01C0440C0A94EAF765
:10264000F50184884828448AE1C480E00E94B30FE1
:102650008FE090E00E947C0C0F5F1F4F0931110545
:1026600009F090CF992011F02F9A2D9880E991E0F0
:102670000E947C0C0E947A0C8FEB97E00E94C0189D
:1026800082E390E00E947C0C0E94810C8111F8CFC3
:102690000E948B0C81E28093CA07809138038823C3
:1026A00009F454C00E944F1000912F031091300381
:1026B000209131033091320360177107820793072D
:1026C00008F444C000913303002E000C110B8091DC
:1026D0002D0390E001968017910739F40E94460B74
:1026E000109233031092380331C0000F111F000FF6
:1026F000111F00501F4FF80180810E94F80DF80152
:10270000618172810E945E0C0E944F10A091330380
:1027100024E0A202F0011124E050FF4F41815281D8
:102720008A01550F220B330BAB01BC01400F511F27
:10273000621F731F40932F03509330036093310344
:102740007093320381E08A0F809333030E944F100D
:102750008091CB07962F981B8091CC07882329F076
:102760009093CD071092CC0749C42091CA079217C5
:1027700048F49F5F921708F041C481E083BF8895B9
:1027800013BE3CC411E01093CC076093CB0720919B
:10279000C6073091C7072F5F3F4F3093C70720937D
:1027A000C607EFE5F3E081118FEF00248193819359
:1027B000819381930394D1F70E944F10C0903D0301
:1027C000D0903E03E0903F03F09040036C157D05F0
:1027D0008E059F0508F41CC180913C03882309F4F1
:1027E0003CC00E94810C682F661F6627661F8AE323
:1027F00093E00E94A60D0E94810C61E084FF60E0DE
:1028000089E393E00E94A60D0E94810C87FF09C016
:1028100080913A0387FD8D5F859585958F5F0E9436
:10282000010E0E94810C84FF09C08091390387FD4D
:102830008D5F8595859580950E94010E0E94810C83
:1028400085FF03C08EEC0E94BC0D0E94810C86FFA8
:10285000C6C082E30E94BC0DC2C00E94810C87FFEB
:1028600017C080913B03882399F080912E03833613
:1028700079F08F5F80932E03E0912D03EF5FE0935B
:102880002D0334E0E39FF0011124E050FF4F138348
:102890000E94810C84FF17C080913B03882399F02C
:1028A00080912E03813079F090912D0344E0949F24
:1028B000F0011124E050FF4F1382915090932D03AB
:1028C000815080932E030E94810C85FF04C080916B
:1028D0002E038111BDC30E94810C86FF07C0809129
:1028E0002E0390912D03981708F0B6C30E94810C17
:1028F00082FF67C080913803882319F01092380353
:1029000060C06FE072E08FE597E00E94C40A00E0CB
:1029100011E0F12CF8018381882391F180810E94DC
:10292000DF0DBC01CE0101960E94BF07CE010196CA
:102930000E945F074D815E8169817A818FE597E012
:102940000E9493066CE072E08FE597E00E94C40A53
:10295000F801618172818FE597E00E94F70EF3E63E
:10296000FF1651F0F8018781882331F069E072E0A9
:102970008FE597E00E94C40A89819A810E94551DC3
:10298000F3940C5F1F4FF4E6FF12C4CF66E072E0D1
:102990008FE597E00E94C40A6FEC72E08FE597E044
:1029A0000E94E80A0E944F1060933403709335032D
:1029B000809336039093370381E08093380310921D
:1029C000330380912E0390E0019720912D0330E096
:1029D00041E08217930709F040E040933B030E94D7
:1029E000810C83FF05C080913B03882309F438C321
:1029F0000E944F10DC01CB018C599F4FAF4FBF4F4E
:102A000080933D0390933E03A0933F03B093400314
:102A1000E0E0F1E060E070E08381882321F08181D3
:102A20009281680F791F349622E0E039F207A1F70E
:102A3000072E000C880B990B0E9456192B013C01A4
:102A4000F12C0CEB1DE390E1A92EB12C30912D035C
:102A50003C873F15A8F044E0F49EF0011124E050BB
:102A6000FF4F80810E94F80D009741F0A816B9062B
:102A70000CF45C01801791070CF48C01F394E6CF01
:102A80008091380381112CC0B801110F880B990B6C
:102A90000E9456190E94351C2DEC3CEC4CEC5DE379
:102AA0000E94131B6D877E878F87988BB501BB0CA7
:102AB000880B990B0E9456190E94351C2DEC3CEC9A
:102AC0004CEC5DE30E94141B698B7A8B8B8B9C8B87
:102AD000812C912C80E8A82E8FE3B82E198651C046
:102AE0000E944F10C0903403D0903503E09036031D
:102AF000F09037036C197D098E099F090E945419C3
:102B0000A30192010E94801B20E030E04CEF52E4D0
:102B10000E94B51920E030E040E85FE30E94141BFA
:102B20000E94F21B7B01C12CD12C41E0B601C701F0
:102B30000E94910C5FEFC51AD50A63E1C616D10455
:102B4000A1F7A2CF03E180912E03598585136EC0B2
:102B500080913C03882309F48AC28091C60780FFD4
:102B600086C22A853B85A101C501B4010E94141BC0
:102B70004B015C0199859F5F9987EC85E91708F403
:102B800087C0998584E0989F8001112400501F4FD1
:102B9000F80180810E94F80D98878F83F801618188
:102BA0007281072E000C880B990B0E945619A30105
:102BB00092010E94801B20E030E04CEF52E40E9422
:102BC000B5196A877B871C012F813885B901330FBE
:102BD000880B990B0E9456190E94351C4F8158850D
:102BE000452B09F4AFCF2D853E854F8558890E942E
:102BF000131B6B017C012D853E854F8558896989A2
:102C00007A898B899C890E94131B9B01AC01C701A7
:102C1000B6010E94801B20E030E040EA51E40E94AF
:102C2000B5190E94F91B04E1061B8DCF8F81988591
:102C3000892B09F496CF20E030E040E85FE36A8515
:102C40007B85C1010E94281C18162CF4BA85AB851F
:102C5000F22DE32D04C0B0E0A0E0F0E8EFE310E0D7
:102C6000A50194016B2F7A2F8F2F9E2F0E94141B8A
:102C70000E94F21B6B017C01C501B4010E94F21B92
:102C8000DC01CB019801A601B8010E942D0F69CF8C
:102C900023E130E040E050E060E070E080E090E070
:102CA0000E942D0F80913B03882309F429C2809153
:102CB000C60780FF25C21092CF071092CE0729E1E8
:102CC00030E03093D1072093D00760E072E08FEBC3
:102CD00097E00E94C40A43E550E05093CF07409329
:102CE000CE0789E190E09093D1078093D00760915F
:102CF0002E0370E06F5F7F4F8FEB97E00E94F70E1F
:102D0000EFE5F0E0F093CF07E093CE0729E130E064
:102D10003093D1072093D0076FE28FEB97E00E94AA
:102D2000BD0A49E650E05093CF074093CE0789E1B2
:102D300090E09093D1078093D00760912D0370E0CD
:102D40006F5F7F4F8FEB97E00E94F70E1092CF07D7
:102D50001092CE07E3E2F0E0F093D107E093D007C2
:102D600080913B03882339F061EF71E08FEB97E0AE
:102D70000E94C40A38C064EE72E08FEB97E00E94B4
:102D8000E80A81E490E09093CF078093CE0723E296
:102D900030E03093D1072093D007E0912E0334E048
:102DA000E39FF0011124E050FF4F80810E94F80D55
:102DB000BC018FEB97E00E94F70E6DEE71E08FEB98
:102DC00097E00E94C40AE0912E0344E0E49FF001E2
:102DD0001124E050FF4F80810E94DF0DBC018FEB7A
:102DE00097E00E94E80A1092CF071092CE078DE27A
:102DF00090E09093D1078093D00780913B03882384
:102E000019F06BED71E022C061ED71E08FEB97E09E
:102E10000E94C40A85E590E09093CF078093CE0787
:102E2000EDE2F0E0F093D107E093D007E0912E03BC
:102E300024E0E29FF0011124E050FF4F6181728194
:102E40008FEB97E00E94F70E6EEC71E08FEB97E04E
:102E50000E94C40A80913B0381111DC01092CF07CC
:102E60001092CE0748E350E05093D1074093D0072B
:102E70006EEE72E08FEB97E00E94E80A80913C03CF
:102E8000882319F061EF72E002C066EF72E08FEB09
:102E900097E00E94E80A80913C038111ACC089E36D
:102EA00090E09093CF078093CE07E8E3F0E0F093B3
:102EB000D107E093D0076DEF72E08FEB97E00E94AF
:102EC000E80A20E030E04AE754E4C301B2010E947E
:102ED000801B6B017C014B015C019B01AC010E94DA
:102EE0007D1C882319F065E073E01AC026013701C4
:102EF000E89477F82FEF3FEF4FE75FE7C301B201A8
:102F00000E947D1C811111C02FEF3FEF4FE75FE75B
:102F1000C301B2010E944F1918163CF469E073E036
:102F20008FEB97E00E94E80A61C02FEF3FEF4FE779
:102F30005FE4C701B6010E94281C18161CF46DE05E
:102F400073E0EECF2FEF3FEF4FE75FECC701B60125
:102F50000E944F1987FDF3CF20E030E0A901C7019F
:102F6000B6010E944F1987FF0BC06DE28FEB97E00F
:102F70000E94BD0A46015701B7FAB094B7F8B09461
:102F80002DEC3CEC4CE45DE3C501B4010E94141B44
:102F90004B015C010E94F91B6B017C010E945419DA
:102FA0009B01AC01C501B4010E94131B4B015C01E4
:102FB0002AE0B701A6018FEB97E00E94FD0A6EE2BE
:102FC0008FEB97E00E94BD0A20E030E040E251E440
:102FD000C501B4010E94B5190E94F91BAB0160E064
:102FE00070E02AE08FEB97E00E94FD0A63E78FEB29
:102FF00097E00E94BD0A80E00E94B30F80E090E05D
:10300000892B09F44ACB0E94000047CB21153105DA
:1030100091F0FB01EA0FFB1FEA5FFE4FE491F0E045
:103020002F01062C02C0559447940A94E2F7F6014A
:103030008080482840826F5F7F4FFFEFCF1ADF0A02
:10304000EFEFAE1ABE0A6835710509F0E7CAD6CAB5
:10305000815080932E033FCC8F5F80932E0346CC0C
:1030600090913C0381E0892780933C03C1CC20E010
:1030700030E040E85FE36A857B85C1010E94281C3F
:103080001816DCF56A857B85C1010E94F91BD62ED6
:1030900010E0C801019798878F83C501B4010E9491
:1030A000F21B7B01FB01ED0DF11DFE8BED8B680129
:1030B000F2E0CF0ED11C2D893E89E216F3060CF00A
:1030C00050CD0F81188517FF02C000E010E0C60147
:1030D00031E4C316D10414F080E490E00817190716
:1030E00044F441E0B801C7010E94910C0F5F1F4FEB
:1030F000EECF4FEFE41AF40ADECFDD24D394C8CF2D
:1031000023E130E04FE750E060E070E08FE790E0CF
:103110000E942D0FD0CDDF92EF92FF920F931F935D
:10312000CF93DF93D82EF92EE42E062F10E0C8019E
:103130000196880F0E945E0583E00E945E05CD2DFA
:10314000DF2D0C0F1D1FC017D10789F0E7FE03C04C
:10315000FE01849101C088810E945E05F82E80E006
:103160000E945E058F2121968111EDCF01C081E083
:10317000DF91CF911F910F91FF90EF90DF90089515
:103180000F931F93CF93DF938C0181E090E00E9417
:10319000890C80FF32C08AE090E00E94890C9FEF8A
:1031A000980F9E3F50F522E330E0D80150963C93B3
:1031B0002E931F9728E330E052963C932E9351971D
:1031C000CBE0D0E0D801ED91FC910190F081E02DB1
:1031D000682FC8010995CE010E94890C2196C13142
:1031E000D10581F780E00E94B30F88EE93E0DF9174
:1031F000CF911F910F910C947C0CDF91CF911F9177
:103200000F91089504970C94C018EFE5F7E013822E
:10321000128288EE93E0A0E0B0E084839583A683D9
:10322000B7838DEA92E0918380838FEF9FEF95873C
:103230008487EFEBF7E0138212821186128680E119
:1032400083871086178215868FEB92E091838083A7
:103250008DEC92E095838483108A1786128A118AF6
:1032600081E0838B148A858B168A8FE396E0909396
:10327000BE078093BD0780E090E89093BC078093E1
:10328000BB0746983E9A47983F9A089591110C942F
:10329000221A803219F089508550C8F708950E948B
:1032A000911908F481E00895E89409C097FB3EF471
:1032B00090958095709561957F4F8F4F9F4F992383
:1032C000A9F0F92F96E9BB279395F6958795779501
:1032D0006795B795F111F8CFFAF4BB0F11F460FFC1
:1032E0001BC06F5F7F4F8F4F9F4F16C0882311F019
:1032F00096E911C0772321F09EE8872F762F05C02D
:10330000662371F096E8862F70E060E02AF09A95C7
:10331000660F771F881FDAF7880F9695879597F9BC
:103320000895990F0008550FAA0BE0E8FEEF161656
:103330001706E807F907C0F012161306E407F507A9
:1033400098F0621B730B840B950B39F40A2661F01D
:10335000232B242B252B21F408950A2609F4A140C0
:10336000A6958FEF811D811D08950E94C8190C94A8
:103370003C1A0E942E1A38F00E94351A20F095232C
:1033800011F00C94251A0C942B1A11240C94701A19
:103390000E944D1A70F3959FC1F3950F50E0551F91
:1033A000629FF001729FBB27F00DB11D639FAA279A
:1033B000F00DB11DAA1F649F6627B00DA11D661FE9
:1033C000829F2227B00DA11D621F739FB00DA11D0A
:1033D000621F839FA00D611D221F749F3327A00DC4
:1033E000611D231F849F600D211D822F762F6A2F60
:1033F00011249F5750409AF0F1F088234AF0EE0FC5
:10340000FF1FBB1F661F771F881F91505040A9F7F1
:103410009E3F510580F00C94251A0C94701A5F3F62
:10342000E4F3983ED4F3869577956795B795F7952D
:10343000E7959F5FC1F7FE2B880F911D96958795A5
:1034400097F9089599278827089597F99F6780E845
:1034500070E060E008959FEF80EC089500240A94E6
:103460001616170618060906089500240A9412165F
:103470001306140605060895092E0394000C11F492
:10348000882352F0BB0F40F4BF2B11F460FF04C03F
:103490006F5F7F4F8F4F9F4F089557FD9058440F98
:1034A000551F59F05F3F71F04795880F97FB991FA3
:1034B00061F09F3F79F08795089512161306140660
:1034C000551FF2CF4695F1DF08C0161617061806ED
:1034D000991FF1CF86957105610508940895E894C8
:1034E000BB2766277727CB0197F90895F999FECF77
:1034F00092BD81BDF89A992780B50895262FF99934
:10350000FECF1FBA92BD81BD20BD0FB6F894FA9AC6
:10351000F99A0FBE01960895052E97FB1EF40094AC
:103520000E94A31A57FD07D00E94E21A07FC03D09D
:103530004EF40C94A31A50954095309521953F4F29
:103540004F4F5F4F089590958095709561957F4F8F
:103550008F4F9F4F08952F923F924F925F926F929D
:103560007F928F929F92AF92BF92CF92DF92EF9213
:10357000FF920F931F93CF93DF93CDB7DEB7CA1B94
:10358000DB0B0FB6F894DEBF0FBECDBF09942A88BF
:10359000398848885F846E847D848C849B84AA8467
:1035A000B984C884DF80EE80FD800C811B81AA81F4
:1035B000B981CE0FD11D0FB6F894DEBF0FBECDBFBF
:1035C000ED010895A1E21A2EAA1BBB1BFD010DC03F
:1035D000AA1FBB1FEE1FFF1FA217B307E407F507C3
:1035E00020F0A21BB30BE40BF50B661F771F881F9F
:1035F000991F1A9469F760957095809590959B0135
:10360000AC01BD01CF010895A29FB001B39FC001DD
:10361000A39F700D811D1124911DB29F700D811DFE
:103620001124911D08955058BB27AA270E942B1BD7
:103630000C943C1A0E942E1A38F00E94351A20F081
:1036400039F49F3F19F426F40C942B1A0EF4E095EC
:10365000E7FB0C94251AE92F0E944D1A58F3BA176C
:10366000620773078407950720F079F4A6F50C9498
:103670006F1A0EF4E0950B2EBA2FA02D0B01B90195
:1036800090010C01CA01A0011124FF27591B99F0D8
:10369000593F50F4503E68F11A16F040A22F232FE4
:1036A000342F4427585FF3CF469537952795A79534
:1036B000F0405395C9F77EF41F16BA0B620B730BDB
:1036C000840BBAF09150A1F0FF0FBB1F661F771F4C
:1036D000881FC2F70EC0BA0F621F731F841F48F401
:1036E000879577956795B795F7959E3F08F0B0CF8A
:1036F0009395880F08F09927EE0F97958795089571
:103700000E94941B0C943C1A0E94351A58F00E9497
:103710002E1A40F029F45F3F29F00C94251A51111C
:103720000C94701A0C942B1A0E944D1A68F399236A
:10373000B1F3552391F3951B550BBB27AA276217AD
:103740007307840738F09F5F5F4F220F331F441FBA
:10375000AA1FA9F335D00E2E3AF0E0E832D09150EE
:103760005040E695001CCAF72BD0FE2F29D0660FDB
:10377000771F881FBB1F261737074807AB07B0E81E
:1037800009F0BB0B802DBF01FF2793585F4F3AF024
:103790009E3F510578F00C94251A0C94701A5F3FE7
:1037A000E4F3983ED4F3869577956795B795F795AA
:1037B0009F5FC9F7880F911D9695879597F9089592
:1037C000E1E0660F771F881FBB1F6217730784072E
:1037D000BA0720F0621B730B840BBA0BEE1F88F73D
:1037E000E09508950E94F91B6894B1110C94701A29
:1037F00008950E94551A88F09F5798F0B92F99277D
:10380000B751B0F0E1F0660F771F881F991F1AF0CB
:10381000BA95C9F714C0B13091F00E946F1AB1E0A7
:1038200008950C946F1A672F782F8827B85F39F0A6
:10383000B93FCCF3869577956795B395D9F73EF464
:1038400090958095709561957F4F8F4F9F4F08950C
:103850000E94911908F48FEF089516F00C94821CC1
:103860000C942B1A68940C94251A0E94551AA8F3EC
:103870009923C1F3AEF3DF93CF931F930F93FF927E
:10388000C92FDD2788232AF02197660F771F881F0D
:10389000DAF720E030E040E85FEB9FE3883920F082
:1038A000803E38F021968F770E94141BECEAF0E0FE
:1038B00004C00E94141BE9EDF0E00E94901C8B01F3
:1038C000BE01EC01FB2E6F5771097595771F880BB0
:1038D000990B0E94561928E132E741E35FE30E9409
:1038E000C819AF2D9801AE01FF900F911F91CF9194
:1038F000DF910E942B1B0C943C1A0E949119880B9B
:10390000990B08959F3F31F0915020F4879577955A
:103910006795B795880F911D9695879597F90895A6
:10392000DF93CF931F930F93FF92EF92DF927B0170
:103930008C01689406C0DA2EEF010E94C819FE01BE
:10394000E894A5912591359145915591A6F3EF0104
:103950000E942B1BFE019701A801DA9469F7DF9002
:10396000EF90FF900F911F91CF91DF910895EE0F8F
:10397000FF1F0590F491E02D09940F931F93CF93AF
:10398000DF938230910510F482E090E0E091ED0742
:10399000F091EE0720E030E0A0E0B0E0309719F1C0
:1039A000408151810281138148175907C8F084175B
:1039B000950769F4109731F012960C9312971396AD
:1039C0001C9327C00093ED071093EE0722C021152A
:1039D000310519F04217530718F49A01BD01EF01A0
:1039E000DF01F801DBCF21153105F9F0281B390B78
:1039F0002430310580F48A819B816115710521F0A5
:103A0000FB019383828304C09093EE078093ED07BC
:103A1000FE01329644C0FE01E20FF31F81939193A1
:103A200022503109398328833AC02091EB07309125
:103A3000EC07232B41F420919E0230919F0230939A
:103A4000EC072093EB0720919C0230919D022115F9
:103A5000310541F42DB73EB74091A0025091A1022B
:103A6000241B350BE091EB07F091EC07E217F3070D
:103A7000A0F42E1B3F0B2817390778F0AC014E5FDE
:103A80005F4F2417350748F04E0F5F1F5093EC0728
:103A90004093EB078193919302C0E0E0F0E0CF0107
:103AA000DF91CF911F910F910895CF93DF930097EE
:103AB00009F481C0FC01329713821282A091ED07B4
:103AC000B091EE07109781F420813181820F931F0E
:103AD0002091EB073091EC072817390751F5F09347
:103AE000EC07E093EB0767C0ED0120E030E0CE1774
:103AF000DF0740F44A815B819E0141155105F1F0D9
:103B0000EA01F5CFD383C28340815181840F951F91
:103B1000C817D90759F488819981840F951F029697
:103B2000918380838A819B819383828321153105D0
:103B300029F4F093EE07E093ED073DC0E901FB8324
:103B4000EA8349915991C40FD51FEC17FD0761F421
:103B500080819181840F951F0296E9019983888362
:103B6000828193819B838A83E0E0F0E012968D91BD
:103B70009C911397009719F0FD01DC01F7CF8D910F
:103B80009C9111979D012E5F3F4F820F931F2091B3
:103B9000EB073091EC072817390769F4309729F4BF
:103BA0001092EE071092ED0702C013821282B093BA
:103BB000EC07A093EB07DF91CF910895A0E0B0E070
:103BC000E4EEFDE10C94AF1AEC01009721F4CB0177
:103BD0000E94BD1CB4C0FC01E60FF71F9C012250DF
:103BE0003109E217F30708F4A8C0D9010D911C911F
:103BF000119706171707B0F00530110508F49BC0A0
:103C0000C80104978617970708F495C00250110958
:103C1000061B170B019311936D937C93CF010E94A8
:103C2000551D89C05B01A01AB10A4C01800E911E7E
:103C3000A091ED07B091EE07612C712CE12CF12CD5
:103C4000109709F446C08D919C911197A815B9055C
:103C5000B1F56C0142E0C40ED11CCA14DB0478F14A
:103C60004C018A189B08640142E0C40ED11C1296D4
:103C7000BC9012971396AC91B5E0CB16D10440F0EE
:103C8000B282A38391828082D9016D937C9309C013
:103C90000E5F1F4F800F911FF90191838083EB2DE1
:103CA000FA2FE114F10431F0D7011396FC93EE934F
:103CB000129741C0F093EE07E093ED073CC0681601
:103CC000790608F43C017D0112960D90BC91A02D5F
:103CD000B7CF8091EB079091EC0788169906E1F435
:103CE00066167706C8F480919C0290919D02009719
:103CF00041F48DB79EB74091A0025091A102841B60
:103D0000950BE817F907C8F4F093EC07E093EB077D
:103D1000F901718360830FC0CB010E94BD1C7C013F
:103D2000009759F0A801BE010E94A91ECE010E9471
:103D3000551DC70104C0CE0102C080E090E0CDB7A0
:103D4000DEB7EEE00C94CB1A81E090E0F8940C948E
:103D5000C21EFB01DC0102C001900D924150504097
:103D6000D8F70895FB01DC018D91019080190110B5
:103D7000D9F3990B0895FB01DC0101900D9200200D
:083D8000E1F70895F894FFCF6C
:103D880032C8000032C8000032C8000032C8000043
:103D980032C8000032C8000032C8000032C8000033
:103DA80032C8000032C8000032C8000032C8000023
:103DB80032C8000032C8000032C8000032C8000013
:103DC80032C8000032C8000032C8000032C8000003
:103DD80032C8000032C8000032C8000032C80000F3
:103DE80032C8000032C8000032C8000032C80000E3
:103DF80032C8000032C8000032C8000032C80000D3
:103E080032C8000032C8000032C8000032C80000C2
:103E180032C8000032C8000032C8000032C80000B2
:103E280032C8000032C8000032C8000032C80000A2
:103E380032C8000032C8000032C8000032C8000092
:103E480032C8000032C8000032C8000032C8000082
:103E580032C8000032C8000032C8000032C8000072
:103E680032C8000032C8000032C8000032C8000062
:103E780032C8000032C8000032C8000032C8000052
:103E880032C8000032C8000032C8000032C8000042
:103E980032C8000032C8000032C8000032C8000032
:103EA80032C8000032C8000032C8000032C8000022
:103EB80032C8000032C8000032C8000032C8000012
:103EC80032C8000032C8000032C8000032C8000002
:103ED80032C8000032C8000032C8000032C80000F2
:103EE80032C8000032C8000032C8000032C80000E2
:103EF80032C8000032C8000032C8000032C80000D2
:103F080032C8000032C8000032C8000032C80000C1
:103F1800FFFFFFFF00E10000000000000000EF07C6
:103F2800800000C1808100000000000000EA0593C5
:103F380006190700060B0641071D0700000000AC24
:103F48000CC00544064306C018FCFF000002190D0A
:103F58000A004334004434004534004634004734F2
:103F68000041340046726571656E63793A00413AE2
:103F7800004261636B0043686F6F736500423A509B
:103F88006C617920006E616E00696E66006F7666FE
:103F9800007761726E696E6720636F756C64206E5E
:0A3FA8006F742066696E642000004B
:00000001FF
